:100000000C9489040C9495340C94A6040C94A604C6
:100010000C94A6040C94A6040C94A6040C94A604B8
:100020000C94A6040C94A6040C94F31F0C94AE1E1E
:100030000C9486210C94A6040C94A6040C94A6049B
:100040000C94A6040C94A6040C94A6040C94A60488
:100050000C94A6040C9439210C94A6040C94A604C8
:100060000C94A6040C94A6040C94A6040C94A60468
:100070000C94A6040C94A6040C94A6040C94A60458
:100080000C94A6040C94A6040C94A6040C94A60448
:100090000C94A6040C94A6040C94A6040C94A60438
:1000A0000C94A6040C94A6040C94A604560A6C0A9C
:1000B000730AAB0ABC0ACE0ADA0AE90A220CF10A70
:1000C000180B3C0B6E0B710BD20FD20F02100210EB
:1000D000A710C510FE11FE11D01043115611561174
:1000E0001D2E442EF92F442EF92F902EB32EF92FCA
:1000F000B42FC42FFD377A585A000004E6D6B44610
:100100000200210116000000742FE5A3E004B701EE
:10011000AD5D003D888966949074A77689C2124DC2
:10012000411B5F11D8822368D377F73F1E4BCAB3B8
:10013000FF8798D7CD34AF32632AFCC2FB81E37BC3
:10014000686653C213A024173BC11C16CE8E568B73
:100150007BAD1A03566619F392E66CB479A00D31A3
:10016000D02344218FA6A79B6006F018CDDF072976
:10017000EDF7CCA0001D33AD0FBB7C73ED2B0F173B
:1001800031B2DDFA4AB7C34967FAA0E633A99CB693
:10019000E8DEFDCC32835BB799C3F6660F7A692F30
:1001A0006B4E675A5B6E62498EE86D3C1C59016E5E
:1001B000C54A178CFB1FA536E6EF07B7FD5D95A373
:1001C000079735FA8AD9A27F7D2010ED9806A1B94C
:1001D0001D7211661DFDBC9B4BF91C7A4D2D42858D
:1001E0004A0D3455CF78978C75C369DC9D369D894F
:1001F00027D5FF68A9D43CF992C8522346A13B7584
:1002000049D7AE86357240A539D04D19A801D5F32E
:10021000C28681BDC80917988EE61325CA183353C4
:1002200002BA652DDD43D80D501966E253C36D61E6
:10023000592E53B9FB6AB8B2FA493073CE8EBE89D3
:10024000F3AB0B90EFBBE9B09A10CE45BE304DF149
:1002500098BBEFAD384394ED55318FCDF615A4CA58
:10026000055E950D157D3DAA9D7736C164499E5B5F
:100270001B233936BC1426E400A33D99E143CEF19B
:100280007727EE0912963BEEBAB3FCF3B5B4B59DF1
:10029000DE8FB1B201031A6DA89D087CD3A0430381
:1002A000A922F4671E34F9EC16895DC913C808A0A9
:1002B000AA8395492D3FA5B418DA0F733B809CB8EB
:1002C00000000000FFDAB65500CE31DA0001C903A4
:1002D000B80900008BBC0565B1C467FB02000000D3
:1002E0000004595AFA00F90000000000FA00F90071
:1002F00000000000FA00F90000000000000000000B
:100300000000000029003A003B003C003D003E0098
:1003100000000000000000001E001F00200021005F
:10032000220023000000000000000000350014003F
:100330001A0008001500170000000000000000006F
:100340002B0004001600070009000A00000000004E
:100350000000000039001D001B0006001900050008
:100360000000000000000000E100E000E300E20007
:1003700001512C003F004000410042004300440076
:1003800045004600470048002400250026002700BD
:100390002D002E002A0049004A004B0018000C00D6
:1003A000120013002F00300031004C004D004E00B1
:1003B0001C000D000E000F00330034002800000068
:1003C000000000000B002700100036003700380046
:1003D000E500000052000000050011002C00E600BE
:1003E000E7006500E400500051004F0000000000ED
:1003F00000000000010001000100010001000100F7
:1004000000000000000000000100010001000100E8
:1004100001000100000000000000000001000100D8
:1004200001000100010001000000000000000000C8
:1004300001000100010001000100010000000000B6
:1004400000000000010001000100010001000100A6
:100450000000000000000000010001000100010098
:100460000100AE00010001000100010001000100D7
:100470000100010001000100010001000100010074
:100480000100010001000100010001000100010064
:100490000100010001000100010001000100010054
:1004A0000100010001000100010001000100000045
:1004B0000000000001000100010001000100010036
:1004C00001000000A900000001000100010001007E
:1004D000010001000100AC00AA00AB000000000018
:1004E0000000000001000100010001000100010006
:1004F00000000000000000000100010001000100F8
:1005000001000100000000000000000001000100E7
:1005100001000100010001000000000000000000D7
:1005200001000100010001000100010000000000C5
:1005300000000000010001000100010001000100B5
:1005400000000000000000000100010001000100A7
:100550000100AE00010001000100010001000100E6
:100560000100010001000100010001000100010083
:100570000100010001000100010001000100010073
:100580000100010001000100010001000100010063
:100590000100010001000100010001000100000054
:1005A0000000000001000100010001000100010045
:1005B00001000000A900000001000100010001008D
:1005C000010001000100AC00AA00AB000100010025
:1005D0007004C028F3280000020002006C04C02848
:1005E000F3280000030001007104C028F328000074
:1005F000040002005604C028F32839280500010031
:100600007204C028F3280000060002005804C02825
:10061000F3280000070002006E04C028F328000041
:10062000080001007304C028F3280000090002003C
:100630005A04C028F32814280A0002005C04C028C9
:10064000F32814280B0002005E04C028F3281428A5
:100650000C0002006004C028F32814280D000200DA
:100660006204C028F32814280E0002006404C02885
:10067000F32814280F0002006604C028F328142869
:10068000100002006804C028F3281428110002009A
:100690006A04C028F3281428120002007404C02839
:1006A000F3280000130002007604C028F32800009D
:1006B000140001007804C028F32800001500000091
:1006C000000097274228000005010902A1018502C8
:1006D0000901A10005091901290515002501950544
:1006E0007501810295017503810105010930093108
:1006F0001581257F95027508810609381581257FAA
:10070000950175088106050C0A38021581257F952B
:100710000175088106C0C005010980A10185031982
:10072000012AB700150126B700950175108100C098
:10073000050C0901A101850419012AA00215012651
:10074000A002950175108100C00660FF0961A1013A
:100750000962150026FF00952075088102096315BE
:100760000026FF00952075089102C005010906A129
:1007700001050719E029E715002501950875018194
:10078000029501750881010507190029FF1500264A
:10079000FF009506750881000508190129059505D2
:1007A00075019102950175039101C009025B000377
:1007B0000100A0FA09040000010301010009211150
:1007C000010001224000070581030800010904011E
:1007D000000203000000092111010001222200078C
:1007E000058203200001070503032000010904021C
:1007F000000103000000092111010001228100070E
:100800000584032000011201000200000008EDFE33
:1008100000000001010203011C0376006900610071
:100820006C003A006600360034006300320062005B
:100830003300630000001003730070006C00690057
:10084000740039003100000014034D0049004E00CF
:100850004800590045004F004E00470000000403C7
:10086000090400000000000000000000000000007B
:100870000000000000000000000000000000000078
:100880000000000000007E0F00D4FFFFFFC7000043
:10089000007800000000000000002A2B2800000063
:1008A000000000000000000000000000002900001F
:1008B00000002C1E3420212224342627252E362DFC
:1008C0003738271E1F202122232425263333362E96
:1008D00037381F0405060708090A0B0C0D0E0F1008
:1008E0001112131415161718191A1B1C1D2F31304D
:1008F000232D350405060708090A0B0C0D0E0F10F1
:100900001112131415161718191A1B1C1D2F31302C
:10091000354C11241FBECFEFDAE0DEBFCDBF11E0B2
:10092000A0E0B1E0E8E4FDE602C005900D92AE3B28
:10093000B107D9F724E0AEEBB1E001C01D92A839B0
:10094000B207E1F70E94A8040C94A2360C940000B0
:10095000ACE3B0E0EEEAF4E00C94B63585B780681D
:1009600085BF85B7806885BF84B7877F84BF0FB692
:10097000F894A8958091600088618093600010923F
:1009800060000FBE90E080E80FB6F894809361009D
:10099000909361000FBE8DE992E19093BF01809327
:1009A000BE010E942E240E94CC230E94F82A0E949D
:1009B000F21E0E94981F8091E20084608093E20002
:1009C000789480918D048823A1F01091E9001F7024
:1009D0009091EC00892F817090FD80E8182B109287
:1009E000E9008091E80083FD0E943A2D1F7010936A
:1009F000E90082E084BD93E095BD9AEF97BD8093B6
:100A00006E001092C0011092C1011092C2011092AA
:100A1000C3010E94DF25811102C00E94CF25519899
:100A200059988FE891E00197F1F700C0000089B173
:100A300086958170809310010E94D61381110E94C7
:100A4000503480911001811128C086E0E4E5F1E086
:100A5000DE01919601900D928A95E1F7FE01B19623
:100A6000AAE0B1E0CE01879621912D938E179F07C2
:100A7000D9F78AE0EAE5F1E0DE01119601900D92E6
:100A80008A95E1F7FE013196A0E0B1E0CE010B9628
:100A900021912D93E817F907D9F780911001882348
:100AA00011F090E001C096E09093DD0186E0891B93
:100AB0008093DC010AE011E0A0E1EA2EA1E0FA2E29
:100AC000D8018D918D018F3F11F00E946314E016C3
:100AD000F106B1F700E011E0F80181918F018F3F3D
:100AE00011F00E946314F1E00A301F07A9F788E1B2
:100AF000E0E1F2E0DF01282F1D922A95E9F7E4EC0E
:100B0000F1E0DF011D928A95E9F780E090E00E9414
:100B10000E36883E9E4F21F40E94DF25811102C0CF
:100B20000E94161882E090E00E9406368093E2014F
:100B300084E090E00E940636182F82E290E00E9446
:100B40000636212F30E0382B3093340420933304C1
:100B50000E947A14EFE3FCE93197F1F700C000003E
:100B60000E947A148091100280FF08C06FEF7FEF1F
:100B700080E090E00E9432360E94282183E090E0DD
:100B80000E9406360E94FC1A9091100181E098277D
:100B900090930902F82FF91BF093DF019091100157
:100BA00080930A02909110018093DE012098289A88
:100BB00055985D9A8FE891E00197F1F700C0000029
:100BC00030910A02EBE0F2E090E0931761F083B11C
:100BD000282F21704D9B02C082E001C080E0822B53
:100BE00081939F5FF2CF0E94D613811102C00E94B1
:100BF000533481E191E090939E0380939D03F0E450
:100C00002F2E80918D04853009F046C000E112E15D
:100C100080918D04853009F03BC080918D04843033
:100C200019F11092A103A8E1B0E00FB6F894A895CD
:100C3000A09360000FBE2092600083B7817F846024
:100C400083BF83B7816083BF7894889583B78E7F95
:100C500083BF0FB6F894A895809160008861809357
:100C60006000109260000FBE80918C04882309F40C
:100C7000CFCF0E947A14E0E1F2E081919191892B2B
:100C800009F006C628E232E02E173F07B1F7C0CFC1
:100C90000E94671D0E9402220E947A14E3EEEE2E4B
:100CA000E1E0FE2E00E112E02BEF31E0D801F70188
:100CB000419151918D919D91842795272E173F0742
:100CC00019F0892BA9F322C0892B01F50E947A2102
:100CD0007C018091E0019091E101E816F90609F4A8
:100CE0005CC08FEF8BAB8CAB1DAA0E947A21816018
:100CF000782F9FAB8EAB4BA95CA96DA98FA90E94E1
:100D00006F30F092E101E092E00147C00E94D613FB
:100D1000382E70E1672E72E0772E512CD3018D9022
:100D20009D903D01F701A080B180A824B924A114B1
:100D3000B10451F1412CCC24C394D12CC5018C2198
:100D40009D21892BC1F03320B1F048AE59AE21E08E
:100D5000C4018C219D21892B09F420E02AAF0E9437
:100D60007A218160782F9CAF8BAF48AD59AD6AADC9
:100D70008CAD0E946F304394CC0CDD1CFAE04F1216
:100D8000DDCFD7018D929C925394B2E0EB0EF11C13
:100D9000ECE05E12C3CF0E946E210E94D61388231E
:100DA00009F47CC08091990390919A03892B41F1B9
:100DB0008091FB019091FC010E945F217C01BE01AA
:100DC000655D7F4F88E0DB011D928A95E9F7809190
:100DD000990390919A030E9410248E159F0580F428
:100DE00080919903BEE08B9FC0011124FC01E85360
:100DF000FC4F208122FD04C08D539C4F0E942D2268
:100E000080914501882341F1809196039091970349
:100E1000009711F10E945F2120917E0430917F04A0
:100E200028173907C8F49091940380919503981777
:100E300059F00E94732210927F0410927E04109247
:100E400097031092960308C00E943C2910929703C2
:100E5000109296030E948C298091710480FF1EC01D
:100E60008091520182FF1AC00E947A2120917A0457
:100E700030917B04AC01421B530B20915001309107
:100E800051014217530750F02DEF31E041E0BC0112
:100E900080917C0490917D040E94232AC12CB12C66
:100EA00080910A02C81608F05CC08C2D90E0E3B176
:100EB000E1704D9B02C022E001C020E06E2F622B4A
:100EC000DC01A55FBD4FEC912E2F237030E0462F43
:100ED000062E000C550B2417350709F440C0EE0F01
:100EE000EE0FE62BEC93D0900902DC0CEF70F0E0F3
:100EF000E459FE4F9C01295F3D4F79019081D90152
:100F00008C91890F8C9384306CF0ED2DF0E0EB5FC9
:100F1000FD4F80818F5F808361E08D2D0E949D2930
:100F200021E001C020E0F70180818D3F64F4ED2DC8
:100F3000F0E0EB5FFD4F80818150808360E08D2D7C
:100F40000E949D2921E0D7018C91082E000C990B5D
:100F500064E070E00E946436F7018083B22AC39493
:100F60009FCFB1100E94AB1786E0E1EBF3E09E014A
:100F70002F5F3F4F7901D90101900D928A95E1F7DA
:100F80001092B3031092B4031092B5031092B603FB
:100F90008B81811104C08C81882309F45FC080910A
:100FA000AF039091B0030E945F21AC019091AB031D
:100FB000992339F020914E0130E02417350758F07D
:100FC0004DC020914F018AE0289F900111242417E1
:100FD000350718F043C09F3F19F09F5F9093AB0314
:100FE000DB80DD2061F00E94E0261D1414F491E006
:100FF00001C09FEF899F802D11248093B303DC8073
:10100000DD2061F00E94E0261D1414F491E001C07F
:101010009FEF899F802D11248093B4033091B303F7
:101020003323E1F02091B4032223C1F045EB3403D4
:10103000C0011124992319F09093B30303C081E0F8
:101040008093B30335EB2303C0011124992319F0D6
:101050009093B40303C081E08093B4038D81811128
:1010600004C08E81882309F45FC08091AD03909104
:10107000AE030E945F21AC019091AA03992339F03D
:1010800020914A0130E02417350758F04DC02091D7
:101090004B018AE0289F900111242417350718F08E
:1010A00043C09F3F19F09F5F9093AA03DD80DD202E
:1010B00061F00E94A7261D1414F491E001C09FEF77
:1010C000899F802D11248093B503DE80DD2061F09F
:1010D0000E94A7261D1414F491E001C09FEF899F80
:1010E000802D11248093B6033091B5033323E1F0B2
:1010F0002091B6032223C1F045EB3403C001112433
:10110000992319F09093B50303C081E08093B50350
:1011100035EB2303C0011124992319F09093B603F2
:1011200003C081E08093B60346E050E0B70181EB55
:1011300093E00E948536892BA9F48091B303811135
:101140000FC08091B40381110BC08091B503811150
:1011500007C081E09091B603911103C080E001C007
:1011600081E080FD0E94F82586E0F701A1EBB3E065
:1011700001900D928A95E1F70E94022290910D0252
:10118000891721F080930D020E946E2180918D04B9
:10119000843009F036CD83E08093E9008091E80047
:1011A00082FF2FCD8091E80085FF21C00E94111F92
:1011B00081111BC040E2C42ED12C570109C080917F
:1011C000F100D5018D935D01B1E0CB1AD10869F032
:1011D0008091E80085FDF3CF8091E8008B778093C4
:1011E000E8000E94111F882399F391E001C090E06C
:1011F0008091E8008B778093E800992309F401CD72
:10120000C0903104D09032048981C114D10461F0BE
:101210008E3F09F017C38A81833008F43BC18550A3
:10122000833008F00FC336C1893009F409C3F0F4E4
:10123000843009F46FC050F48230C1F108F05DC011
:10124000813009F0FDC21A8289E0C9C1863009F4F3
:1012500068C008F0F5C22D813E813227232732274E
:101260004C816B818A810E947723ECC2803109F422
:10127000B2C080F48D3009F457C028F48C3009F0E6
:10128000DFC280E15DC28E3009F451C08F3009F4B5
:1012900076C0D6C2823109F4A3C008F49FC083315E
:1012A00009F4C6C08E3F09F4F5C0CAC28A818230F3
:1012B00009F404C3833051F0813009F0C1C20E94A7
:1012C0006E219B838C837D836E83BCC2809146019B
:1012D00090914701892B09F4B5C2F701CE014996D7
:1012E000D8012C9111963C910E5F1F4F32832383BE
:1012F00032968E179F07A1F7A5C28A81823009F026
:101300009FC26B817C818D819E810E947E360E946E
:10131000AB2598C24C816B818A810E949E239D835C
:10132000D4C20E94AA2B8EC21A8289E658C10A81B1
:101330001B81102701271027AC80B12CBDE1AB1613
:10134000B10408F07FC26701C80189569C4F96011D
:101350002E193F092A153B0508F074C209361105FC
:1013600028F40E940636F601848303C0D601149641
:101370001C920F5F1F4FBFEFCB1ADB0AE5CF8091A6
:10138000460190914701892B09F45CC20A811B81B7
:10139000102701271027CC80D12CEDE1CE16D104E7
:1013A00008F050C25701C80189569C4F95012E196B
:1013B0003F092C153D0508F045C20936110528F4F2
:1013C000D50114966C910E9414360F5F1F4FBFEF2A
:1013D000AB1ABB0AE8CF0E946F2B34C283E0B0C1C6
:1013E0000A811B81102701271027AC80B12CEDE169
:1013F000AE16B10408F026C26701C80187969601AF
:101400002E193F092A153B0508F01CC2003DF2E0E9
:101410001F0730F40E940636D60114968C9302C042
:10142000F60114820F5F1F4FFFEFCF1ADF0AE5CFDF
:101430000A811B81102701271027CC80D12C2DE198
:10144000C216D10408F0FEC1003D32E0130708F0D7
:10145000F9C180ED92E0801B910B8C159D0508F47D
:10146000F1C15701C801879695012E193F092C1526
:101470003D0508F0E7C1003D42E0140728F4D5011E
:1014800014966C910E9414360F5F1F4FBFEFAB1A7A
:10149000BB0AE8CFEA818E2F90E08E30910508F0EC
:1014A000D1C1FC01EA5AFF4F0C94783688E0E4E69B
:1014B000F1E0DE01919601900D928A95E1F780E2CC
:1014C000F70111928A95E9F785E0898388E0FE01AA
:1014D000B196DE0115968AC180EF898381E08A8307
:1014E0001B821C82AFC18C8190E0982F88272B81B2
:1014F000820F911D092E000CAA0BBB0B35E0880F43
:10150000991FAA1FBB1F3A95D1F7AC01BD01405EE0
:101510005F4F6F4F7F4F481759076A077B0708F4E3
:1015200091C1803FF1E09F07A105B10508F08AC194
:10153000413F21E052076105710520F040EF51E085
:1015400060E070E0481B590BBC016C507F4FC70135
:101550000E94ED3577C11B810C8140E0602F812F07
:101560000E943E2399838A8341E0602F812F0E944D
:101570003E239B838C8366C18E819F819827892718
:1015800098270E949B2541E02D81211101C040E058
:101590009C016C818B810E940C2354C140E250E07D
:1015A0006FEF70E0C7010E949B36809146018983EE
:1015B000CA8248C181E090E0909332048093310464
:1015C00082E390E090930F0280930E020E947A21B2
:1015D00039C1809146018983CA8280910E028B8332
:1015E00031C10B811C8140E250E06FEF70E0C70118
:1015F0000E949B362CEC35E080E090E0AC014E5F21
:101600005F4F4132510508F01DC1F9016591749198
:101610000617170730F4F701E80FF91F718360838D
:10162000CA01245F3F4F46E0283C340739F70AC11E
:101630004B815C8128EC36E08CEC95E0FC016591F7
:1016400074916417750729F00C9628173907B1F7BC
:10165000F7C0009709F4F4C0FC0136962591349147
:101660002115310509F4ECC04FE150E0BE016E5F79
:101670007F4FF9010995E5C08B819C810CEC15E049
:10168000F801259134918217930739F0045F1F4FB9
:10169000F6E0083C1F07A1F7D3C00115110509F4B6
:1016A000CFC0F8013896259134912115310509F400
:1016B000C7C04CE150E0BE016B5F7F4FC801F9012C
:1016C0000995009709F0BDC0F8013A96859194916B
:1016D000009711F0FC01099580E0B3C00E941F2B18
:1016E000B1C08B81823071F1E0F4882309F181303F
:1016F00009F0A8C08C819AE0D92E8E010F5D1F4F92
:10170000F8012D2D11922A95E9F7B8010E94432C7A
:101710008983F801DE01129601900D92DA94E1F7C7
:1017200091C0833009F445C0843009F464C08AC094
:1017300080E2D7011D928A95E9F782E0898388E0EB
:101740008A8380C01C818AE0FE013596DE01919675
:1017500001900D928A95E1F789A19AA10E949B259B
:101760009AA389A38BA19CA10E949B259CA38BA3D8
:101770008DA19EA10E949B259EA38DA38FA198A5BC
:101780000E949B2598A78FA3123070F43AE0139F14
:10179000B00111246D5C7C4F4AE050E0CE0181968F
:1017A0000E94383680E001C08FEF89830E942E248A
:1017B00049C06C81CE0181962AE0DC011D922A95F8
:1017C000E9F7683060F4BAE06B9FB0011124695BFF
:1017D0007C4F4AE050E00E94F63580E001C08FEF78
:1017E00089838AE0FE01B196DE01129601900D9286
:1017F0008A95E1F727C01C818AE0FE013596DE015B
:10180000919601900D928A95E1F789A59AA50E947B
:101810009B259AA789A7183070F4EAE01E9FB001B3
:101820001124695B7C4F4AE050E0CE0181960E9412
:10183000383680E001C08FEF89830E94CC2302C03C
:101840008FEF898380918D04843009F0DAC910917B
:10185000E9001F709091EC00892F817090FD80E865
:10186000182B82E08093E9008091E80080FF0CC093
:1018700040E050E060E270E0C7010E94102D8091CE
:10188000E8008E778093E8001F701093E900B9C9D3
:1018900009BD19BD09B400FEFDCF8091D8008F7D30
:1018A0008093D8008091E00082608093E000809176
:1018B000E00081FDFCCF0E94671DAAC986E290E08E
:1018C0000E9406361B821C821D828E83BBCFA4E041
:1018D000B0E0EDE6FCE00C94BA357C01DC01139637
:1018E0004D915C91149711966C9111978C910E9477
:1018F000552281111EC661E0C7010E9461308C0132
:10190000F70182818823E1F08091990390919A03F5
:101910000097B1F00817190799F0FEE08F9FC001FA
:101920001124FC01E853FC4F2081246020838D5357
:101930009C4FDC010D931C930E942D221092980362
:10194000F7018281882309F4B7C0C80182519F45FD
:10195000409708F0CEC08FEF93E00E9406368111C9
:10196000B5C05EEED52ED00E07E913E0DD2071F094
:101970000115F4E01F0709F4A9C0C8010E9406364A
:10198000811101C0DA940F5F1F4FF0CF19821A82C4
:101990001B821C82AA24AA9468012FEFC21AD20AC1
:1019A000C8010E94063689831A82882309F48EC0F2
:1019B000813009F07CC0480182E0880E911CC6018C
:1019C0000E940636B82E8A83882309F47FC08FEFE1
:1019D0008B0D833060F4680193E0C90ED11CC40103
:1019E0000E9406368B83811162C08601D5CF8BEFB2
:1019F0008B0D833078F53801A3E06A0E711CC401A9
:101A00000E9406368B83811102C06301EECF68010C
:101A1000B4E0CB0ED11CC3010E9406368C83882310
:101A200021F32B813C812130EFEF3E0718F0922FFC
:101A300080E001C0C901F6E0BF1631F027E0B21620
:101A400031F00E94E924D1CF0E94C324CECF0E945E
:101A50004924CBCF84E0B81611F06401C6CFC4018D
:101A60000E940636B82E680194E0C90ED11CC80148
:101A700003960E940636BB2049F1882339F1282FAE
:101A800030E021503109A29EA001A39E500D1124E7
:101A90008B2D90E00197840F951F019708F4A5CF37
:101AA000AFE9BFE01197F1F700C00000F6CFCE011B
:101AB00001960E94642C99CF0031AFE51A0709F016
:101AC000EFC481E00E949A1A0E94582C8091EA0289
:101AD000877009F42EC5D70112968C91882309F4DA
:101AE00028C58091340482FF24C582E00E94A71A91
:101AF00020C50031FFE51F0711F481E005C0013169
:101B00002FE51207A1F482E00E94D91ADDCF680107
:101B100087E5D81A9FEFC916D10409F040F469EBA4
:101B200073E08C2D0E94432C892B09F4C0C4C8019A
:101B300097558F3F910511F008F051C05801BB2413
:101B40002EE0029FF0011124CF018D539C4F6C01B8
:101B5000D70112969C911297E853FC4F808190FB1D
:101B600080F9808312969C919923A1F10E947A2199
:101B70009093FC018093FB01F60182818F5F828349
:101B80009091980380913504892B838380912D0255
:101B900084830680F781E02D309739F0D6011C96BA
:101BA0006D917C911D97C60109958EE08A9DF0018B
:101BB0008B9DF00D1124E853FC4F808181FF03C001
:101BC00090E080E002C0902F812F90939903809342
:101BD0009A0305C081FF03C0C6010E9413228091B1
:101BE000710480FF4EC10E947A216C01F70182814D
:101BF0008823D9F18091520182FF08C02DEF31E096
:101C000040E0B60180E090E00E94232A0B31FCE521
:101C10001F0779F00C312CE5120789F00A318CE5A9
:101C20001807A1F480915201982F909590FB80F9AC
:101C300009C08091520181608093520107C0809158
:101C400052018E7F809352010E94E429C801905670
:101C50008115A0E29A0720F0905E8115904180F5F1
:101C600010927D0410927C040CC1013E110521F4F8
:101C7000809152018F7E06C0053E110531F480919E
:101C800052018F7D809352011BC0C801905681156F
:101C9000E0E29E0720F0905E8115904188F48091EB
:101CA000520182FFEEC08091730481FDEAC02DEFE6
:101CB00031E040E0B60180E090E00E94232AE1C0DC
:101CC0008091520180FFDDC0D70112968C910832BD
:101CD000110538F40E311105B8F40430110578F40B
:101CE000CEC00933110538F40D32110590F40B32D2
:101CF000110579F0C4C00436110559F0C0C09091A7
:101D0000710494FDBCC009C09091710493FDB7C0EB
:101D100004C09091710492FDB2C0882309F4A8C058
:101D200090912D0280913504892B8D7F79F110924D
:101D30007D0410927C048091710481FD27C0F8011C
:101D400043E0F695E7954A95E1F7EE71FF27EA5CE7
:101D5000FB4F98012F70332781E090E002C0880F7D
:101D6000991F2A95E2F780959095208131818223F1
:101D7000932391838083A70160E0C8010E94032A16
:101D800080912D028D7F0E948C186EC088E0F70133
:101D9000ADEFB1E001900D928A95E1F71092FF014D
:101DA000109201021092000280917C0490917D04B7
:101DB00008171907E1F58091710485FF38C09091EB
:101DC000520191FF02C086FF32C080917A04909147
:101DD0007B045601A81AB90AB701C8010E94102451
:101DE000A816B90620F58091350481FF08C08091BE
:101DF000520180618093520182E00E94A718809175
:101E0000350485FF08C080915201806280935201A1
:101E100080E20E94A7186091520166956170A70147
:101E200080917C0490917D040E94032A4FCE809182
:101E30002D0290913504982B969591702091520126
:101E400090FB21F9209352018D7F0E948C181093F2
:101E50007D0400937C04D0927B04C0927A0480912C
:101E6000520184608093520182E00E94A71A2ECE14
:101E7000970140E0B601C8010E94232A27CE8111B4
:101E8000EFCED70112968C918823C1F10A35BDE5BA
:101E90001B0779F158F40115FCE51F0789F00E3D89
:101EA0002CE5120759F50E94161818C00C358DE55F
:101EB0001807B9F000F1073AADE51A0779F01EC02E
:101EC0000E94671DBFEFE4E3FCE0B150E040F0404A
:101ED000E1F700C000000E942821F8CD0E94AF3237
:101EE000F5CD8091340482FB882780F991E0892721
:101EF00003C081E001C080E00E94C41AF70186811E
:101F000097810097B9F4F7018281008111818823BC
:101F100049F0C8010E94211AD82E682FC8010E94DA
:101F20007A1A04C0C8010E945D1AD82EB8018D2DFE
:101F30000E947F2B0E940F16182F092FD70112968F
:101F4000BC9012971596CC90C2943FE0C32280912A
:101F5000EA028770B9F0BB20A9F0892F807F803416
:101F600021F080E2810F883068F08091340482FF94
:101F700009C082E00E94A71A8091EA028770AA2411
:101F8000A3948111A12C902E92942FE09222892D5E
:101F900090E08C30910508F031C2FC01EC59FF4F04
:101FA0000C947836902F9F70802F807FD92E19F057
:101FB000D29490EFD922BB20A9F0DD2009F4FEC114
:101FC00080E2810F883010F0111104C08D2D0E9425
:101FD000AE1805C080919803D82AD09298030E9429
:101FE000BA19ECC1812F0E94F932DD2009F406C232
:101FF00080E2810F883068F1112359F18D2D0E9404
:10200000A0182AC0902F9F70802F807FD92E8032F9
:1020100019F0D29480EFD822112321F0113009F465
:1020200068C073C08091340482FD19C0BB2059F090
:10203000DD2029F08D2D0E94AE180E94BA1980E093
:102040000E945C33DBC180E00E94F932DD2009F49C
:10205000D5C18D2D0E94A7180E94BA19CFC1BB20EF
:1020600011F1CC20E1F0B1E0CB1206C080912D023D
:102070008D290E948C18C2C180917204823078F040
:10208000C8120DC00E948118909128028D2D892BB5
:102090008913809328028D2D0E94011EAFC180916B
:1020A0002D028D29F9CFCC20F1F080917204E1E06E
:1020B000CE1214C0823008F4A1C1809135048D2164
:1020C00009F49CC10E948118909128028D2D809561
:1020D0008923891751F08093280207C0823018F0B5
:1020E000C81609F48BC10E9481188D2D0E94FA1D1B
:1020F00085C180917804BB2021F08C1508F47EC145
:10210000CACFC81608F07AC1F0CFBB20E9F0CC20C6
:1021100011F220E0D7014C9111965C911197129623
:102120006C91129713967C91139714968C910E9440
:102130003E308091730481FD41C1F701858180FFAC
:102140003DC18F708583A7CFC11041C1CECF802FF5
:1021500086958695837019F0813061F04FC1BB2060
:1021600021F0812F902F937002C080E090E00E94B8
:10217000EC214AC1BB2021F0812F902F937002C027
:1021800080E090E00E94D6213FC1812FBB2019F052
:102190000E942F2702C00E9422260E94F82534C1E7
:1021A000802F8370A1F5B1102DC1412F4295469526
:1021B0004770440F440F212F2F7030E0C901042EC7
:1021C00001C0880F0A94EAF714FF08C02FE030E03E
:1021D00001C0220F4A95EAF7209501C020E0302F78
:1021E000369536953370323069F040F440912E02C6
:1021F000313019F0822B842302C0842B822B0E9461
:10220000FC1A00C1282B80912E028227F8CFBB2018
:1022100019F0802F817001C08695882309F4F2C0DF
:10222000412F429546954770440F440F212F2F7040
:1022300030E0C901042E01C0880F0A94EAF714FFA8
:1022400008C02FE030E001C0220F4A95EAF7209540
:1022500001C020E0302F369536953370323051F082
:1022600070F440919704313019F0822B842308C018
:10227000842B05C0282B80919704822701C0822BD4
:102280000E94951ABFC0F02FFF70DF2EBB2039F0DF
:102290008F2F0E94D91A812F0E94011EB3C0812F57
:1022A0000E94FA1D8D2D0E949A1AACC0123F11F1A6
:1022B00028F4103F41F0113FA9F17CC0133F01F118
:1022C000143F61F177C080917804BB2021F0C816DB
:1022D00008F094C003C08C1508F490C0202F2F7113
:1022E00081E090E001C0880F2A95EAF79091970469
:1022F00089270FC0802F8F71BB2009F463C07AC07B
:10230000BB2051F081E0902F9F7101C0880F9A95FA
:10231000EAF70E94951A72C080E0FBCF80913404E6
:1023200082FD06C0802F8F71BB2009F463C04AC0B4
:1023300080917204823040F1BB20C1F09091EA029A
:102340009770943039F40E949919802F8F710E94F0
:102350009A1A53C0C81608F050C0202F2F71D22EE1
:10236000822F0E94D91A63E08D2D07C0C81640F055
:102370000E94991964E0802F8F710E94E51A3DC078
:1023800081E00E94A71A39C0BB2051F0802F8F71C5
:10239000D82E0E94D91A63E08D2D0E94E51A2EC016
:1023A00081E00E94A71A91E09C1540F582E00E940E
:1023B000A71A24C0BB2049F0CC2011F0812F40CEB9
:1023C000802F8F710E94D91A19C0CC2089F019333F
:1023D00029F4809176049091770404C0809174046C
:1023E000909175040E94182A812F0E94F93206C02C
:1023F000802F8F710E949A1A01C0A12C88EF890D3D
:10240000843010F40E940222812F902F0E94011B21
:10241000811105C010922A021092290225C0BB200A
:1024200019F0C110F7CF20C0C110F4CF20E0D701C0
:102430004C9111965C91119712966C91129713968C
:102440007C91139714968C910E943E308091730476
:1024500083FFE0CF8091290290912A020297D1F662
:10246000812F0E94081ED6CFAA20A9F08091EA02EF
:1024700080FD11C0F70112828595859585950E9492
:10248000D91AC7010E94670C8091EA02859585954B
:1024900085950E949A1A60E0C7010E94613049C088
:1024A0000131BFE51B0709F032CB82E00BCB8EE098
:1024B0008C9DF0018D9DF00D1124ED53FC4F828118
:1024C0008130E1F48091B9039091BA03892B09F42A
:1024D0002ECB8091BB039091BC03892B09F427CBB1
:1024E0008091BD039091BE03892B09F020CB809190
:1024F000BF039091C003892B59F019CB823009F0AA
:1025000016CB8091BD039091BE03892B09F40FCBAC
:102510002EE02C9DC0012D9D900D1124FC01E8534F
:10252000FC4F20812E7F20838D539C4F0E942D22B3
:10253000FECA2496EEE00C94D63580E00895909182
:10254000330492FF0DC0282F2871283019F4877F9B
:10255000846006C0282F2471243011F48B7F88609A
:1025600093FF0DC0282F2871283119F4877E8461CC
:1025700006C0282F2471243111F48B7E88612091AC
:10258000340420FF0DC0382F3871383019F4877F9C
:10259000816006C0382F3171313011F48E7F886030
:1025A00021FF0DC0282F2871283119F4877E816101
:1025B00006C0282F2171213111F48E7E886194FD8F
:1025C000877E0895A0E0B0E0E8EEF2E10C94BE351D
:1025D0007C015B016A01809165028A3018F001E09C
:1025E00010E002C00AE010E0C1E0D0E0B501C70190
:1025F000F6010995811115C021960C171D0794F05D
:10260000CC9F9001CD9F300D300D112480E090E0E3
:1026100045E34A95F1F70000019682179307C1F749
:10262000E5CF81E0CDB7DEB7EAE00C94DA35A1E082
:10263000B0E0EDE1F3E10C94BA35C62E4A01590140
:10264000682E880F7708C3010E943B35882309F460
:1026500073C0C30123E0880F991F2A95E1F7FC019D
:10266000E35EFE4F438150E04115510511F041E01A
:1026700050E0FC01E35EFE4F64817581625B7D4F3B
:10268000CE0101960E949236F4014081518162810F
:1026900073812FB7F8948091A2039091A303A09126
:1026A000A403B091A5032FBF841B950BA60BB70BFA
:1026B00084369105A105B10538F4B701C8010E941F
:1026C000E12A99818917D1F10C2C000CDD08C60193
:1026D0000E943B35782E8823E1F0E114F104C9F023
:1026E000960183E0220F331F8A95E1F7F901E35E3B
:1026F000FE4F438150E0E416F50608F4A701F90106
:10270000E35EFE4F64817581625B7D4FC5010E946F
:102710009236B701C8010E94E12A91E0298128136D
:1027200090E0D92ED72089F00E946E21F4016083B9
:1027300071838283938309C0D12C02C0DD24D3949A
:10274000A701B801C5010E9492368D2D2196EEE0B9
:102750000C94D635ACE0B0E0E0EBF3E10C94C0357E
:102760006B018CE0E82EF12C0FE412E09E012F5F4C
:102770003F4F46E452E061E080E00E941713882357
:1027800049F09CE0FE013196AAE3B2E001900D927F
:102790009A95E1F79CE0EAE3F2E0D60101900D9210
:1027A0009A95E1F72C96E8E00C94DC35809139029B
:1027B000811119C088EC90E02091E30027FD0AC048
:1027C000EFE3FCE93197F1F700C000000197A1F7B2
:1027D00082E001C081E080933902823021F40E94BE
:1027E000F21E10928D0481E090913902913009F02F
:1027F00080E00895A4E0B0E0E0E0F4E10C94C4359A
:102800004091610250916202609163027091640292
:102810002FB7F8948091A2039091A303A091A403F1
:10282000B091A5032FBF841B950BA60BB70B843665
:102830009105A105B10508F441C00E94D613882373
:1028400019F00E946E210EC00E946E210091C001FD
:102850001091C1012091C2013091C301600F711F1D
:10286000821F931FDC01CB010296A11DB11D89833C
:102870009A83AB83BC8380913E0190913F01825B40
:102880009D4F40913D0150E04530510510F044E02E
:1028900050E0BE016F5F7F4F0E94923684E090E06F
:1028A0000E943B35882359F00E946E21609361029B
:1028B00070936202809363029093640281E0249695
:1028C000E4E00C94E035F894E82FE295EF70F0E046
:1028D00031A1282F2F7081E090E001C0880F2A9548
:1028E000EAF7982F9095932391A392A1892B82A325
:1028F00078940895A4E2B0E0E0E8F4E10C94B835EF
:102900009E012F5F3F4F790188E1D9011D928A9581
:10291000E9F70AE011E0690160E1462E61E0562E18
:1029200066246394712CEAE08E2EE1E09E2EF8017D
:1029300080818F3F09F446C0F894E82FE295EF704C
:10294000F0E021A18F70A30102C0440F551F8A95AA
:10295000E2F7CA01922F982B91A392A18095892327
:1029600082A3789400C0E0E0F1E021E030E0A12C07
:10297000B12C41914F3F89F0A42FA295AF70B0E0E8
:1029800090968C9190E04F7002C0959587954A95EE
:10299000E2F780FD02C0C90102C080E090E0A82AF1
:1029A000B92A220F331F8E169F0619F7D8018C9172
:1029B0008F3F11F00E946314B0EABA95F1F7F60167
:1029C000B182A0820F5F1F4FF2E0CF0ED11C4016E4
:1029D000510609F0ACCF48E150E0B70184EC91E03A
:1029E0000E948536009741F028E1F701A4ECB1E0A0
:1029F00001900D922A95E1F70091DD01892B49F0B4
:102A000081E0809331020E947A219093300280937A
:102A10002F0280913102811102C0D12C24C08091FB
:102A20002F02909130020E945F210597B0F310E0D1
:102A3000000F111F005F1D4F4CE050E064EC71E08F
:102A4000C8010E948536892B59F08CE0E4ECF1E056
:102A5000D80101900D928A95E1F7DD24D39401C04D
:102A6000D12C109231020E94D613E091DD019E011B
:102A7000275E3F4F7901882309F473C08CE0D901A8
:102A80001D928A95E9F70E2F10E0000F111F005FCD
:102A90001D4F809165028A3048F44AEA53E1B7013C
:102AA000C8010E94E212882379F10AC080913202A3
:102AB000909133020E945F21843F914070F735C0AE
:102AC0004EEA57E1B701C8010E94E2128823E1F003
:102AD0004AEF53E1B701C8010E94E2128823A1F036
:102AE000109265028091DC0190E0880F991F4CE004
:102AF00050E0B701805F9D4F0E94853621E0209312
:102B00003802892BF1F485C0809165028F3F19F05E
:102B10008F5F80936502809165028A3018F30E946E
:102B20007A21909333028093320280913802882375
:102B300009F46FC08CE0F70111928A95E9F71092C1
:102B40003802A091DC01B0E0AA0FBB1FA05FBD4F0F
:102B50008CE0FE01799601900D928A95E1F781E073
:102B600059C0F0E0EE0FFF1FE05FFD4F8CE0AFE4D7
:102B7000B2E001900D928A95E1F76CE070E08FE48D
:102B800092E00E94E12A80934E0240910A0250E0B6
:102B90006091090270E06B5F7D4FC7010E94923621
:102BA000898D80935C0261E070E0C7010E94E12A98
:102BB00080935B0280905D0290905E02A0905F0225
:102BC000B09060028091340290913502A09136025B
:102BD000B091370288169906AA06BB06D1F08092FA
:102BE000340290923502A0923602B09237020E94CF
:102BF000D61381110EC00E946E21861A970AA80A68
:102C0000B90A8092C0019092C101A092C201B09213
:102C1000C30180E08D29A496E0E10C94D435CF93D4
:102C2000DF938238910569F1B0F48133910509F49D
:102C300077C048F48932910509F469C08A32910558
:102C400009F473C092C08533910509F45BC08933E0
:102C50009105B9F08AC0833E910591F138F4803E28
:102C60009105D1F0823E910531F17FC0863E9105FC
:102C7000D9F1873E9105E9F1843E910509F075C0CF
:102C800028C02091330420FD5BC021FD59C0209154
:102C9000340423FD61C069C08091330480FD4AC0C3
:102CA0008091340480FF4CC08091330484FD4EC178
:102CB00083EE90E04DC18091330482FF3EC0F4CF9B
:102CC0008091330482FD39C08091340480FD38C086
:102CD000EBCF8091340481FF39C08091330484FDAF
:102CE00035C187EE90E034C18091330483FF2BC05F
:102CF000F4CF8091330483FD26C08091340481FD9C
:102D000025C0EBCF8091330485FD26C022C0809181
:102D1000330485FD1EC08091340483FF1DC00AC0AA
:102D20008091330486FD1BC01DC08091330486FD55
:102D300019C015C089E390E00BC182EE90E008C194
:102D400080EE90E005C186EE90E002C184EE90E056
:102D5000FFC085E390E0FCC089E290E0F9C08AE220
:102D600090E0F6C081E390E0F3C0811531E5930770
:102D700008F061C0811520E59207B0F0482F4F7030
:102D80004695469520E2429FA0011124982F93700A
:102D900021E030E002C0220F331F9A95E2F7C9010B
:102DA0009D68842B952BD4C0883E910568F5803EA4
:102DB000910508F0CDC0883A9105B8F4853A91059F
:102DC00048F0855AE82FF0E0E458FE4F808190E00B
:102DD0009064BEC08130910509F4B5C008F4B6C056
:102DE0008430910508F4B2C0B3C08F3B910508F060
:102DF000ADC0885AE82FF0E0EE0FFF1FE158FE4FFC
:102E0000808191819464A4C0811530E2930758F4C5
:102E1000811521E0920708F09BC0803F910508F4DE
:102E200095C0906595C0811530E4930708F48EC075
:102E30009F70906A8DC0811525E5920708F042C009
:102E4000811534E5930728F0982F8827846F906ABE
:102E50007FC0811523E59207B0F09C0123703327D2
:102E600041E050E002C0440F551F2A95E2F7282F99
:102E70002695269580E2289F90011124CA01822B75
:102E8000932B9A6865C0811532E5930728F4982F33
:102E90008827816F906A5CC09C012370332741E0D2
:102EA00050E002C0440F551F2A95E2F7282F2695BF
:102EB000269580E2289F90011124CA01822B932B32
:102EC0009C6846C0EC01C11589E5D807B0F4C1156E
:102ED00028E5D20728F09C2F8827806F906A38C099
:102EE000C11536E5D30790F58C2F0E949F128F7184
:102EF00090E0982F882790622BC0C1158AE5D807EB
:102F000090F48C2F8F700E949F1294E0D695C795F5
:102F10009A95E1F7CF70D0E0DC2FCC27D0699E01E5
:102F2000282BC90115C0CE0190568115904270F42E
:102F30008D2F8F710E949F12282F2F71CE019927FC
:102F40009062922B05C081E090E002C080E090E0AA
:102F5000DF91CF9108950E946E210895A1E0B0E025
:102F6000E4EBF7E10C94BF35EE24E394F12C0CE58F
:102F700012E09E012F5F3F4F4AE452E063E082E09F
:102F80000E941713B82E882309F43DC000E080E0AA
:102F90009091DE010917A0F5D090DF01D00E2D2D04
:102FA00030E0A9014B5F5D4F7A01E1E0F0E0EC0F0A
:102FB000FD1FE00FF11D1081FA019081191BC12E38
:102FC0001C145CF4CA94F70180818F5F808361E0F8
:102FD0008D2D0E949D2981E0F3CF912F17FD90E068
:102FE000191B112359F01F5FF701808181508083E5
:102FF00060E08D2D0E949D2981E0F3CF0F5FC8CF47
:1030000081110E94AB178B2D2196E9E00C94DB35E2
:10301000CF93C92F682F84E090E00E9414366C2F64
:1030200082E290E00E941436CF91089568EE7EEF20
:1030300080E090E00E94323660E082E090E00E9402
:10304000143660E083E090E00E94143610922E0265
:1030500060E084E090E00E94143664E082E290E058
:103060000E94143660E085E090E00E94143660E033
:1030700086E090E00E9414366FEF87E090E00E94B7
:10308000143640E050E0BA0188E090E00E94263615
:1030900060E08DE090E00E94143640E050E0BA011C
:1030A00088E190E00E94263660E087E190E00E948F
:1030B000143640E050E0BA018CE190E00E942636E0
:1030C00060E070E080E290E00E94323640E050E044
:1030D000BA0188E190E00E94263680E00E94B02587
:1030E0000E94CF2540E050E0BA018FE090E00E94BE
:1030F000263640E050E0BA0183E190E00E94263697
:10310000089580912D02882331F010922D021092A3
:103110002C0210922B020895CF939091340492FFC9
:103120000DC090912D02981749F0C82F0E947A2166
:1031300090932C0280932B02C0932D02CF9108957F
:1031400080959091980389238093980308958095A2
:103150009091350489238093350408959091350426
:10316000892B8093350408952091E7029091A6025F
:103170002917B1F030E0F90153E0EE0FFF1F5A9527
:10318000E1F7E955FD4F5181561306C050815813A0
:1031900003C05281541306C02F5F3F4F2770E8CF02
:1031A00080E0089581E008958091E7029091A60261
:1031B000891719F08F5F8770FBCF08959B01782FD7
:1031C000777043E0969587954A95E1F7FC01EE0FFD
:1031D000FF1F8E0F9F1FF901E80FF91F40E050E01D
:1031E00080E0219130E0072E02C0369527950A94A1
:1031F000E2F721703327042E01C0220F0A94EAF768
:10320000822B4F5F5F4F4330510559F70895962F3A
:103210009770A1E001C0AA0F9A95EAF793E076951E
:1032200067959A95E1F7FB01EE0FFF1F6E0F7F1F69
:10323000FA01E60FF71F40E050E0682F70E0908140
:103240009B01042E02C0369527950A94E2F721705F
:10325000219529272A23292721934F5F5F4F433048
:10326000510569F70895A0E0B0E0E9E3F9E10C94B5
:10327000C0358091A30282958F7009F055C080916E
:10328000A002882309F450C0C091E7028091A602F1
:10329000C81709F449C0F0909E02E0909F02C090C8
:1032A000A102D090A202A6016E2D8F2D0E94552260
:1032B000D0E0811136C08E0183E0000F111F8A9586
:1032C000E1F7F801E955FD4F81818E112AC0808117
:1032D0008F1127C08281811124C0E380F480EC1813
:1032E000FD0860E08EE992E00E9461306EE972E0D4
:1032F0000E941024E816F906A0F48091A3028F70B2
:1033000080618093A302F801E455FD4F80818F70A6
:10331000806180838EE992E00E94670C0E94D4183D
:1033200003C02196C770B2CFCDB7DEB7E8E00C94EA
:10333000DC351092EA021092E9021092E802089538
:103340008091580490915904892B89F00E947A2128
:1033500020912B0230912C02AC01421B530B81E0D7
:1033600020915804309159044217530708F480E023
:10337000817008959091350480919803892B8093F2
:10338000660280912D02882301F18091580490916A
:103390005904892B29F00E94A01981110E948118DB
:1033A0009091660280912D02892B80936602E8E657
:1033B000F2E097E080E0915029F021912223D9F3A7
:1033C0008F5FF9CF81110E94811848E050E06BEEC9
:1033D00072E086E692E00E948536892BA9F088E0AB
:1033E000E6E6F2E0ABEEB2E001900D928A95E1F7ED
:1033F000E0919D03F0919E03309731F00280F381BC
:10340000E02D86E692E00995089580E090E00E9424
:10341000EC2180E090E00E94D621109298030E9457
:10342000BA19E1EBF3E086E0DF011D928A95E9F736
:103430001092AB031092AA031092AC030E94F825DD
:103440000895CF92DF92FF920F931F93CF93DF9354
:103450006C010091970480912E02082BC7E0D0E008
:1034600010E0C8010C2E02C0959587950A94E2F7EA
:1034700080FD04C02197A8F7F12C09C0FC2EB601ED
:103480008C2F0E947F2B0E940F16019799F38F2D8E
:10349000DF91CF911F910F91FF90DF90CF90089512
:1034A000CF93DF93EC010E94211ABE010E947F2B73
:1034B0000E940F16DF91CF910895903FC9F09C3084
:1034C00070F48A3060F4282F30E061E772E0A901DF
:1034D000EAE09E9F400D511D1124CA0106C09C5F69
:1034E000923030F46EE672E090E00E94DE180895AB
:1034F00080E00895282F903FB9F0862F622F9C30EE
:1035000058F42A3048F470E02AE0929F600D711D53
:10351000112441E752E006C09C5F923028F470E02D
:103520004EE652E00E9407190895809397040E9486
:10353000051A089521E030E001C0220F8A95EAF7CC
:1035400020958091970482230E94951A08952091D6
:10355000EA02809582238093EA02982F977099F46B
:1035600030E0482F082E000C550B2417350759F072
:103570009091340492FF07C08595859585950E94AA
:103580009A1A0E94991908959091340492FB222767
:1035900020F9281769F080FB92F990933404809108
:1035A0003304909134040E94081882E00E94A71A04
:1035B000089521E030E001C0220F8A95EAF780915A
:1035C0009704822B0E94951A08959091340492FFDB
:1035D00010C098E0899F90011124262B2093EA02C5
:1035E0000E94D91A0E947A219093E9028093E802FE
:1035F00008950E94D91A089580932E020E94051AF8
:10360000089592959F70963079F010F4925001C011
:103610009A50923068F4803F69F018F4883E40F484
:1036200009C0843F29F406C0883E20F0813F11F094
:1036300080E0089581E00895CF93DF93EC014B8102
:103640005C81698188810E94552281110EC08E8122
:103650009F81009719F00E940F1604C088819981FC
:103660000E94501A0E94011B01C080E0DF91CF919F
:103670000895A5E1B0E0EFE3FBE10C94B8358C01CF
:1036800085E0F801DE01519601900D928A95E1F7EF
:10369000D8015C9011966C9011971296EC9012974D
:1036A0001396CD90DC90149760E08EE992E00E9432
:1036B00061308EE9A82E82E0B82E8090A102909011
:1036C000A202A40160919F0280919E020E94552255
:1036D000F82E8111DBC14090A002F601E819F9092A
:1036E0004F0160E0442009F45FC1C5010E946130D0
:1036F000B5010E9410247090A3028816990608F064
:103700000BC14091A1025091A202B0909E02A090E4
:103710009F02872D807F6A2D09F08EC08B2D0E941D
:103720005522811124C0D80111968C9111978A11CC
:103730001EC08C918B111BC02091A4023091A50258
:1037400016968D919C9117972817390781F4E110EF
:103750000EC0872D8F7080618093A3028EE992E066
:103760000E94670C8091A302F8018583ABC1A6017A
:10377000662D852D0E945522D82E811103C081E02F
:103780008E2502C080E090E080FF17C04E2D662D90
:10379000852D0E94B418882381F08091730480FFE6
:1037A0000CC08EE992E00E94670CEEE9F2E088E03E
:1037B000DF011D928A95E9F785C1D11003C081E030
:1037C0008E2502C080E090E0B82FB170CB2E80FF34
:1037D0002AC04E2D662D852D0E94B418D82E811139
:1037E00022C0598A6A8A89899A890E94501A292F87
:1037F00022952F70223018F0243078F405C09F7085
:1038000049F0811107C00DC09F7021F0F80195812A
:10381000907F39F0805E883020F0C8010E94670CEC
:10382000DC2CFD2C4FC1EE2009F44BC18091A3028A
:1038300081608093A30246C18B2D0E945522811185
:1038400024C0D80111968C9111978A111EC08C91B9
:103850008B111BC02091A4023091A50216968D9168
:103860009C9117972817390781F4E1100EC015961F
:103870007C92C8010E94670C88E0F801AEE9B2E0D2
:1038800001900D928A95E1F76FC0C8010E941C1B40
:103890008823E1F1EE20D1F12091A302822F8295BD
:1038A0008F7090E00297A4F080919E0290919F0209
:1038B0009A8789871B86DD86CC862E878091A40215
:1038C0009091A502988B8F87CE0109960E94670C74
:1038D00088E0F801AEE9B2E001900D928A95E1F737
:1038E0000E94331916C0F0909E0290909F02409162
:1038F000A1025091A202692D8F2D0E94552288238A
:1039000099F0C8010E941C1B811130C0C8010E949F
:10391000670CFF24F394D6C0872D807F21F78EE9B2
:1039200092E00E94670CACC0D80111968C9111975F
:103930008911E7CF8C918F11E4CF2091A4023091AF
:10394000A50216968D919C91179728173907C9F6ED
:10395000E110D7CF15967C92C8010E94670C88E0D1
:10396000F50111928A95E9F7F42CACC0EE2071F2C2
:103970002091A302822F82958F7090E002970CF421
:10398000A7CF80919E0290919F029A8389831B8288
:10399000DD82CC822E838091A4029091A50298872B
:1039A0008F83CE01019692CF8EE992E00E94613022
:1039B0006EE972E00E9410248816990608F060C033
:1039C000FE2CEE2009F4A2CFE0909E02D0909F0240
:1039D0004091A1025091A2026D2D8E2D0E94552280
:1039E000811140C0D80111968C9111978D113AC068
:1039F0008C918E1137C02091A4023091A5021696A9
:103A00008D919C9117972817390761F58091730460
:103A100082FD1FC08091A30280FD1BC082958F7024
:103A2000482F50E041155105A1F02091A3021596B1
:103A30002C9315974F30510549F08F5F982F929531
:103A4000907F822F8F70892B15968C93C8010E94CE
:103A5000670C88E0F801AEE9B2E001900D928A951A
:103A6000E1F730C0C8010E941C1B811131CF809149
:103A7000A30281608093A302C8010E94670C22C048
:103A800088E0F50111928A95E9F71CC0EE2009F44F
:103A90003DCFC8010E941C1BF82E882309F436CFA5
:103AA00088E0F801AEE9B2E001900D928A95E1F765
:103AB00080919E0290919F020E94501A0E94331999
:103AC00001C0F12C8F2D6596E0E10C94D435109255
:103AD000350486E0E8E6F2E0DF011D928A95E9F719
:103AE0000E94051A0895A0E1B0E0E9E7FDE10C9419
:103AF000C23529873A874B875C876D877E878F879A
:103B0000988BCE0109960E94391B81114AC088E02A
:103B1000FE013996DE01119601900D928A95E1F72A
:103B2000E984FA840C851D85A8016F2D8E2D0E94D5
:103B30005522811136C0A091A602B0E0CD010196B8
:103B4000877099272091E70230E08217930781F16F
:103B5000E982FA821D830C8393E0AA0FBB1F9A951A
:103B6000E1F7A955BD4F98E0FE01319601900D9205
:103B70009A95E1F78093A6020E94D41812C028E01B
:103B8000829FC001112489559D4F0E94391B8823B3
:103B9000E1F08091E70290E0019687709927809389
:103BA000E7028091E7029091A6028913E8CF0DC049
:103BB0000E94671D1092A6021092E702EEE9F2E061
:103BC00088E0DF011D928A95E9F76096E6E00C94A3
:103BD000DE35882321F00E94A0180E94BA190895AA
:103BE000882339F090919803892B809398030E9441
:103BF000BA190895882321F00E94A7180E94BA19C3
:103C00000895882321F00E94AE180E94BA190895E1
:103C10001F93CF93DF93182F893329F4C091760433
:103C2000D091770404C0C0917404D0917504812FA1
:103C30000E945C33209741F08FE99FE00197F1F7F4
:103C400000C000002197F6CF812F0E94F932DF914A
:103C5000CF911F91089508958091820408958093D3
:103C6000A6037093A8036093A70380918D0484300A
:103C7000F9F48093E9008FEF9091E800815095FD71
:103C800006C095ED9A95F1F700008111F5CF80916E
:103C9000E80085FF0DC040E050E063E070E086EA98
:103CA00093E00E94102D8091E8008E778093E800C9
:103CB0000895BC0184E00E942F1E0895BC0183E09A
:103CC0000E942F1E089524E02093E9002FEF3091E9
:103CD000E800215035FD06C035ED3A95F1F70000BA
:103CE0002111F5CF2091E80025FF0BC040E050E006
:103CF00066E070E00E94102D8091E8008E7780933E
:103D0000E8000895CF93DF9321E02093E9002FEF9F
:103D10003091E800215035FD06C035ED3A95F1F7B8
:103D200000002111F5CF2091E80025FF14C0EC011F
:103D300040E050E068E070E00E94102D8091E800C3
:103D40008E778093E80088E0FE01A3E8B4E001905C
:103D50000D928A95E1F7DF91CF9108951F920F920E
:103D60000FB60F9211242F933F934F935F936F934E
:103D70007F938F939F93AF93BF93CF93DF93EF93F3
:103D8000FF93C091E900CF708091EC00D82FD170E3
:103D900080FDD0E81092E9008091F000877F809349
:103DA000F00078940E943A2D1092E9008091F00082
:103DB00088608093F000CD2BCF70C093E900FF9115
:103DC000EF91DF91CF91BF91AF919F918F917F91B3
:103DD0006F915F914F913F912F910F900FBE0F9078
:103DE0001F901895E8EDF0E080818E7F808310921F
:103DF000E2001092DA001092E100A0EEB0E08C91A7
:103E000081608C9380818F77808319BCA7EDB0E0AF
:103E10008C918E7F8C9380818F7E80831092A903FA
:103E200008952091E4003091E50095E64091EC0082
:103E3000842F817040FF23C08091E80080FD1DC069
:103E400080918D04882399F0853099F08091EB0062
:103E500085FD11C04091E4005091E500241735071D
:103E600029F3915011F09A01E1CF84E0089582E0A6
:103E7000089583E0089581E0089580E008954091D9
:103E8000E80042FFDDCF089580918F0487FF11C0C5
:103E90008091E80082FD05C080918D048111F8CFEA
:103EA00011C08091E8008B770BC080918D0488232E
:103EB00049F08091E80080FFF8CF8091E8008E778C
:103EC0008093E8000895982F973068F59093E90063
:103ED000981739F07091EC002091ED005091F000AE
:103EE00003C0242F762F50E021FD02C09F5FECCF4E
:103EF0003091EB003E7F3093EB003091ED003D7F41
:103F00003093ED003091EB0031603093EB00709313
:103F1000EC002093ED005093F0002091EE0027FD7F
:103F2000E5CF80E008958F708093E90081E00895E7
:103F3000A0E0B0E0EEE9FFE10C94C035C8EDD0E0C0
:103F400088818F7E8883E7EDF0E0808181608083C7
:103F500084E082BF81E08093A90388818E7F88837B
:103F600002EE10E0F80110821092DA0081EEC82E05
:103F7000D12CF601108288818F77888388818068B0
:103F8000888388818F7D888319BC10928D0410925C
:103F90008E0410928C0410928B0490EEE92EF12C7A
:103FA000F70180818B7F808388818160888342E0F4
:103FB00060E080E00E94631FF60180818E7F808335
:103FC000F801808181608083808188608083F7012F
:103FD00080818E7F8083888180618883CDB7DEB7C2
:103FE000E8E00C94DC351F920F920FB60F9211246B
:103FF0002F933F934F935F936F937F938F939F93F1
:10400000AF93BF93EF93FF938091E10082FF09C0CC
:104010008091E20082FF05C08091E1008B7F809358
:10402000E1008091DA0080FF2AC08091D80080FFF3
:1040300026C08091DA008E7F8093DA008091D900CB
:1040400080FF18C080E189BD82E189BD09B400FE0E
:10405000FDCF81E080938D048091A90381110FC071
:104060000E94F21E0E94981F8091E200846080935B
:10407000E20005C019BC10928D041092A903809132
:10408000E10080FF17C08091E20080FF13C08091A3
:10409000E2008E7F8093E2008091E2008061809355
:1040A000E2008091D80080628093D80019BC85E03E
:1040B00080938D048091E10084FF30C08091E20004
:1040C00084FF2CC080E189BD82E189BD09B400FE76
:1040D000FDCF8091D8008F7D8093D8008091E10042
:1040E0008F7E8093E1008091E2008F7E8093E200DA
:1040F0008091E20081608093E20080918E048823A9
:1041000011F084E007C08091E30087FD02C081E0E8
:1041100001C083E080938D0480918D048091E10043
:1041200083FF27C08091E20083FF23C08091E100DC
:10413000877F8093E10082E080938D0410928E044B
:104140008091E1008E7F8093E1008091E2008E7F7C
:104150008093E2008091E20080618093E20042E07F
:1041600060E080E00E94631F8091F000886080938F
:10417000F000FF91EF91BF91AF919F918F917F914F
:104180006F915F914F913F912F910F900FBE0F90C4
:104190001F901895209195043091960426173707A3
:1041A00048F06115710539F42091E8002E772093CD
:1041B000E80001C0B901FC0120E06115710579F149
:1041C00080918D048823F1F18530F1F18091E80030
:1041D00083FD3CC08091E80082FD2EC08091E80004
:1041E00080FFEBCF2091F3008091F20090E0922BC2
:1041F0006115710551F08830910538F421912093B3
:10420000F100615071090196F3CF21E0089709F0A0
:1042100020E08091E8008E778093E800CECF2111D6
:10422000CFCF0AC080918D04882361F0853061F082
:104230008091E80083FD0AC08091E80082FFF2CF00
:1042400080E0089582E0089583E0089581E0089574
:1042500087E797E790930108809300089AE088E148
:104260000FB6F894A895809360000FBE90936000FD
:10427000FFCF78941F920F920FB60F9211248F9355
:104280009F93AF93BF938091A2039091A303A091BA
:10429000A403B091A5030196A11DB11D8093A203B3
:1042A0009093A303A093A403B093A503BF91AF91F0
:1042B0009F918F910F900FBE0F901F9018959C01AA
:1042C0004FB7F8948091A2039091A303A091A40307
:1042D000B091A5034FBF821B930B08952FB7F8949D
:1042E0006091A2037091A3038091A4039091A50310
:1042F0002FBF08952FB7F8948091A2039091A30344
:10430000A091A403B091A5032FBF08951F920F920F
:104310000FB60F9211248F939F93AF93BF93809109
:10432000A103811113C08091A2039091A303A091D6
:10433000A403B091A5034196A11DB11D8093A203D2
:104340009093A303A093A403B093A503BF91AF914F
:104350009F918F910F900FBE0F901F9018959C0109
:104360002A5F3F4FFC014281461301C01282019631
:1043700082179307B9F708959C01FC0132969FEFCD
:1043800080E04191461789F09F3F19F4411101C027
:10439000982F8F5F8630A9F79F3F39F0F901E90F19
:1043A000F11D97FDFA9562830895089520919F036A
:1043B0003091A0032817390771F09093A0038093E0
:1043C0009F03E0919D03F0919E03309721F00084BC
:1043D000F185E02D0995089520919B0330919C0370
:1043E0002817390771F090939C0380939B03E09109
:1043F0009D03F0919E03309721F00680F781E02D18
:10440000099508950E94D613882359F0E0919D03E1
:10441000F0919E03309729F00190F081E02D0995ED
:10442000089580E00895CF93DF93EC01EA85FB8542
:10443000309719F06C857D8509958B810E94A018B5
:104440008C810E94A7180E94BA1986E0FE01119281
:104450008A95E9F7DF91CF910895CF93DF93EC012F
:104460008D8181FD15C082608D83909198038B8131
:10447000892B809398038C810E94AE180E94BA19F0
:10448000E885F985309721F06C857D85CE01099509
:1044900010929A03109299038D8180FD03C0CE0182
:1044A0000E941322DF91CF910895452B41F06F3F79
:1044B00041F491E08F3F09F090E0892F03C081E043
:1044C00001C080E0817008951092970310929603C6
:1044D0001092450180919503809394030E948C294A
:1044E0000E943C290895A0E0B0E0E9E7F2E20C94D4
:1044F000B735C091940397E0892E01E010E02CE0DD
:10450000322E3EEF932E4424439480919503C81796
:1045100009F479C0D0E0FE01EE0FFF1FE457FC4F15
:1045200080819181889ED001899EB00D1124AC5A62
:10453000BC4F14962C911497211162C05090F30235
:10454000E4EFF2E020E030E0712C5D01251508F089
:1045500055C0E284F384D501CD90DC906FEF7FEFFE
:10456000612C462D50E0DA01AA0FBB1FAC0DBD1D1A
:104570000D90BC91A02D109731F0EA16FB0609F4BE
:10458000BA016394EECF6F3FBFEF7B0799F1D8017B
:1045900002C0AA0FBB1F6A95E2F77A2AB801062C5F
:1045A00002C0660F771F0A94E2F7AB014150510930
:1045B000672D70E046175707D9F4329EF001339EFD
:1045C000F00D1124EC50FD4F889ED001899EB00D56
:1045D0001124AC5ABC4F12962D913C9113973783FE
:1045E0002683908291829187808715964C9206C08F
:1045F000148213822F5F3F4F3C96A8CF0E940E2952
:104600002196C37082CF0E943C290E948C29CDB78D
:10461000DEB7E1E10C94D3350F931F93CF93DF9373
:10462000833038F5623028F594E0699FE001112469
:1046300098E0899FC00DD11D1124C950DD4F411153
:1046400003C082E090E002C080E090E0632F022F80
:10465000142F8C0F9D1F0E941436111103C083E08C
:1046600090E002C081E090E0602F8C0F9D1F0E94BF
:104670001436DF91CF911F910F910895FF920F9300
:104680001F93CF93DF93833058F5623048F524E0D1
:10469000629F8001112438E0839F000D111D1124B9
:1046A00009501D4F411103C082E090E002C080E03C
:1046B00090E0F42E800F911F0E94063690E0D82FD4
:1046C000CC27F11003C083E090E002C081E090E0CD
:1046D000800F911F0E9406369E01282BC90102C03F
:1046E00080E090E0CDB7DEB7E5E00C94DF351F93B6
:1046F000CF93DF93962F8330E8F46C30D8F44A30B0
:10470000C8F4632F122FC42FD0E0CC0FDD1F24E19B
:10471000929FC00DD11D112490EF899FC00DD11D16
:104720001124CE0187960E941436612FCE018896FF
:104730000E941436DF91CF911F9108950F931F931C
:10474000CF93DF93833008F56C30F8F44A30E8F407
:10475000C42FD0E0CC0FDD1F24E1629FC00DD11D1E
:10476000112430EF839FC00DD11D1124CE018796F7
:104770000E94063690E0182F0027CE0188960E94EE
:1047800006369801282BC90102C080E090E0DF9135
:10479000CF911F910F910895AAE0B0E0E2EDF3E20E
:1047A0000C94C03580E5EFEDF3E0DF011D928A95B2
:1047B000E9F788E3E4E5F3E0DF011D928A95E9F784
:1047C0008FEDC82E83E0D82E7F0107E413E0F701B8
:1047D000D182C0824AE050E0B801CE0101960E9429
:1047E000F63588E0FE013196D60101900D928A954A
:1047F000E1F789859A85D70113969C938E9312973A
:10480000BAE0CB0ED11CE7E0EE0EF11C065F1F4FA5
:104810000739F3E01F07D9F62A96E8E00C94DC3557
:10482000AAE0B0E0E6E1F4E20C94C6359C0137550D
:104830002F3F310509F050F4BE016F5F7F4F0E949A
:10484000432C892B19F489859A8504C080916E04C4
:1048500090916F042A96E2E00C94E235E3ECF3E0E9
:104860004AEF54E25783468321E235E231872087BD
:104870008EE694E29387828715861486558B448B47
:10488000378B268B918F808F81E090E0938F828F82
:104890000895A5E0B0E0EFE4F4E20C94C6359093FF
:1048A000300480932F04811520E2920718F40E94AF
:1048B000C53210C080EF89838A831B820E947A21CF
:1048C0008160782F9D838C8349815A816B818D8192
:1048D0000E946F302596E2E00C94E2350F931F930F
:1048E000CF93DF938C01EB0169EB73E08C2F0E9477
:1048F000432C892B09F042C0809174049091750477
:104900000E94182ADD27C954DC4F8881F8011282E1
:104910001882833079F048F4813041F1823071F5AA
:104920008091BB039091BC0309C0843051F0853065
:10493000E9F024C08091BD039091BE030097B1F0CF
:104940001BC08091BF039091C0030097A9F42091F0
:10495000B9033091BA038091BB039091BC03211538
:10496000310541F0009741F4C90106C08091B903B7
:104970009091BA03009711F00E944924DF91CF91E2
:104980001F910F910895A5E0B0E0E9ECF4E20C94DA
:10499000C6359093300480932F04811520E292074E
:1049A00018F40E94DF3211C080EF89838A8381E08E
:1049B0008B830E947A218160782F9D838C8349812B
:1049C0005A816B818D810E946F302596E2E00C94B4
:1049D000E235CF93DF93EC010E94C32480917404ED
:1049E000909175040E94182ACE010E944924DF91FB
:1049F000CF9108950F931F93CF93DF938C01862F50
:104A000069EB73E00E94432C892BB1F4C091B90388
:104A1000D091BA03209781F0F8018281833039F474
:104A2000CE010E94E924CE010E94E92402C0843014
:104A300018F0CE010E94E924DF91CF911F910F91D0
:104A400008950F931F93CF93DF938C01EB0169EBD4
:104A500073E08C2F0E94432C892B09F067C0DD275F
:104A6000F8018281813039F4958192FD13C090FF65
:104A700011C082E00FC0823041F4F801858182FDCF
:104A800006C080FD06C083E005C086E003C085E067
:104A900001C084E0C954DC4F88838330B1F028F42E
:104AA000813071F0823031F041C08430A9F085301E
:104AB00079F13CC08091BB039091BC030097A1F5B4
:104AC0008091B9039091BA0320C08091BD03909169
:104AD000BE030097E9F028C08091BF039091C00306
:104AE000009711F58091B9039091BA03009749F0AE
:104AF0000E94E9248091BB039091BC03009781F050
:104B000013C08091BB039091BC03009779F00CC057
:104B10008091B9039091BA03009741F00E94E92473
:104B20008091B9039091BA030E94C324DF91CF9181
:104B30001F910F91089581152CE5920759F48091EA
:104B4000460190914701892B19F480E090E0089587
:104B500080E09CE5089586E290E00E941436089576
:104B6000CF93C82F811102C06FEF01C06FE183E2C4
:104B700090E00E941436C11102C06FEF01C064E6DC
:104B800084E290E00E941436C11102C06FEF01C0B0
:104B900062E585E290E00E941436CF91089580E0AE
:104BA0000E94B02560E070E0CB010E94AB250E941E
:104BB000AA2B0E946F2B81E00E94B025089583E20A
:104BC00090E00E9406368F3181F484E290E00E94EA
:104BD0000636843651F485E290E00E94063691E074
:104BE000823509F090E0892F01C080E0817008953E
:104BF0000E947A212091B303211104C02091B403B3
:104C0000222321F09093B0038093AF032091B5034A
:104C1000211104C02091B603222321F09093AE030A
:104C20008093AD03E0919D03F0919E03309749F08E
:104C300082E08093B1030480F581E02D81EB93E065
:104C400009950895803F39F48091B40387FF6AC0C5
:104C50001092B40367C0813F29F48091B403181601
:104C6000BCF360C09091B303823F29F497FF5AC010
:104C70001092B30357C0833F19F41916CCF352C0F6
:104C80009091B503893F31F419160CF04BC0109286
:104C9000B50348C08A3F19F497FF44C0F8CF8B3F53
:104CA00039F48091B60387FF3DC01092B6033AC035
:104CB0008C3F29F48091B6031816BCF333C0843FAF
:104CC00021F48091B2038E7F17C0853F21F480913B
:104CD000B2038D7F11C0863F21F48091B2038B7F98
:104CE0000BC0873F21F48091B203877F05C0883FC6
:104CF00031F48091B2038F7E8093B20313C08D3F55
:104D000021F48091AC038E7F0BC08E3F21F4809103
:104D1000AC038D7F05C08F3F29F48091AC038B7F5E
:104D20008093AC038091B303811106C08091B403DA
:104D3000811102C01092AB038091B503811106C0AE
:104D40008091B603811102C01092AA030895809148
:104D5000AC0380FF08C06091490170E075956795CC
:104D60007595679521C081FF06C06091490170E08B
:104D70007595679519C082FF04C06091490170E084
:104D800010C09091AA03992399F060914801961759
:104D9000A0F780914901899FC001112470E00E9411
:104DA00064366038710540F46115710519F406C068
:104DB00061E070E0862F08958FE7089581E00895FF
:104DC0008091AC0320915E0430915F0480FF0CC0A1
:104DD00080914D01829FB001839F700D11247695C3
:104DE0006795769567952FC081FF0AC080914D0128
:104DF000829FB001839F700D11247695679523C023
:104E000082FF08C080914D01829FB001839F700D89
:104E1000112419C04091AB03411102C0B90113C064
:104E200060914C01461770F780914D01849FA0015D
:104E30001124429FC001439F900D529F900D112459
:104E400070E00E9450366038710528F461157105D4
:104E500021F0862F08958FE7089581E00895803F1F
:104E600021F40E94E026819504C0813F29F40E942C
:104E7000E0268093B4030895823F21F40E94E02647
:104E8000819504C0833F29F40E94E0268093B303F8
:104E90000895893F19F40E94A72605C08A3F31F47E
:104EA0000E94A72681958093B50308958B3F21F436
:104EB0000E94A726819504C08C3F29F40E94A72652
:104EC0008093B6030895843F21F48091B2038160FA
:104ED00017C0853F21F48091B203826011C0863FE4
:104EE00021F48091B20384600BC0873F21F480914C
:104EF000B203886005C0883F31F48091B2038061BD
:104F00008093B20308958D3F21F48091AC038160BA
:104F10000BC08E3F21F48091AC03826005C08F3FAF
:104F200029F48091AC0384608093AC030895A0E0E1
:104F3000B0E0EDE9F7E20C94BE354430510508F4D9
:104F40006CC04091330441FBCC24C0F8D12CCC0C74
:104F5000DD1C42FB882780F9C82FE0E0DE2FCC0F54
:104F6000DD1FCC0FDD1FCC2ADD2A40FBEE24E0F84C
:104F7000F12CEC28FD2843FBAA27A0F9B0E023E0A0
:104F8000AA0FBB1F2A95E1F7EA2AFB2A44FBEE276A
:104F9000E0F9F0E034E0EE0FFF1F3A95E1F7EE297B
:104FA000FF2945FB222720F930E055E0220F331F6F
:104FB0005A95E1F72E2B3F2B46FB882780F990E08E
:104FC000E6E0880F991FEA95E1F7822B932B47FBC8
:104FD000442740F950E05695542F4427579547955C
:104FE000842B952B20913404322F3170132F00E045
:104FF000082B192B26952170B22EBB0CA12C0A2947
:105000001B29012E000C220B330BFB0100831183A3
:105010002283338380E090E002C08FEF9FEFCDB713
:10502000DEB7EAE00C94DA35E6E5F4E084819581B8
:105030002AE030E0B9010E94503660934F0186812A
:1050400080934E01828580934D01848580934C012D
:1050500086859785B9010E94503660934B018089FF
:1050600080934A0182898093490184898093480111
:105070000895809156049091570490935101809324
:1050800050010895CF92DF92EF92FF924430510584
:1050900008F46FC0FB01C080D180E280F3800E94E1
:1050A000671D80913304C0FA80F9B701A601769597
:1050B00067955795479540FB81F9B701A60122E016
:1050C00076956795579547952A95D1F740FB82F9D4
:1050D000B701A60133E076956795579547953A95C0
:1050E000D1F740FB83F9B701A601E4E07695679517
:1050F00057954795EA95D1F740FB84F9B701A6018A
:10510000F5E07695679557954795FA95D1F740FB69
:1051100085F9B701A601A6E076956795579547955D
:10512000AA95D1F740FB86F9B701A601B7E07695BD
:10513000679557954795BA95D1F740FB87F98093C6
:10514000330480913404D0FA80F999E0F694E7941E
:10515000D794C7949A95D1F7C0FA81F98093340413
:1051600080913304909134040E94081880E090E00C
:1051700002C08FEF9FEFFF90EF90DF90CF900895E8
:105180009C01CA01F9013296459154918417950703
:1051900050F0CB01F9013496659174910E949236DA
:1051A00080E090E008958FEF9FEF08950F931F9395
:1051B000CF93DF9306E514E0CFE0D3E0CE010E9469
:1051C0000636F80161918F01681719F0CE010E942F
:1051D00014362196C333F3E0DF0781F7DF91CF91D7
:1051E0001F910F910895DA019C012E5F3F4FF90145
:1051F00045915491F90125913491A217B30758F0C4
:10520000FC013496859194910E9492360E94D62892
:1052100080E090E008958FEF9FEF0895BC014091EA
:10522000940380919503942F981729F1292F30E04A
:10523000F901EE0FFF1FE457FC4F0190F081E02DC4
:10524000E617F70799F487E0869FF001879FF00D36
:105250001124EC5AFC4F81E0848394130CC02F5F1F
:105260003F4F237033272093940308952F5F3F4FC0
:10527000922F9370D9CF0895EF92FF920F931F93BF
:10528000CF93DF938091F302882309F440C000910B
:1052900080048CE0F82E8091F3020817A0F5EE242C
:1052A000E394E00EE092800410E0F09EE001F19EB5
:1052B000D00D1124CC50DD4F4B815C8169818881F8
:1052C0000E94552281111DC08E819F81892B21F45E
:1052D00088859985019651F4288139814A815B81BD
:1052E0006C817D818E819F810E94731DF09EF001F3
:1052F000F19EF00D1124EC50FD4F14821382109298
:1053000098030E2DC8CF1092F30210928004CDB7EF
:10531000DEB7E6E00C94DE3510927F0410927E0436
:10532000E4E5F3E08581811102C01482168237968C
:1053300083E0EC38F807B1F70895AAE0B0E0E3EABB
:10534000F9E20C94C435182F062F662329F00E9429
:105350007A211E832DEF04C00E947A211E832CEF38
:105360002F8321E0288781609A8789874E815F811A
:10537000688579858A850E946F308FE39FE1019768
:10538000F1F700C00000002329F00E947A21198360
:105390002DEF04C00E947A2119832CEF2A831B82EF
:1053A00081609D838C8349815A816B817C818D8151
:1053B0000E946F308FE39FE10197F1F700C000007A
:1053C0002A96E4E00C94E03580915201877F809327
:1053D000520182E00E94A0188091520184FF06C011
:1053E0008F7E8093520182E00E94AE18809152011C
:1053F00085FF06C08F7D8093520180E20E94AE1827
:105400000E94BA190895662329F02091980322601A
:10541000209398039C013056211540E2340720F078
:10542000305E2115304108F499270E94DF3208953B
:10543000009741F0EFE9FFE03197F1F700C000007D
:105440000197F6CF0895A0E0B0E0E9E2FAE20C940B
:10545000BE355C017B01C42E89018091520182FF1F
:105460008DC0C0917C04D0917D04CA15DB0521F06C
:10547000A114B10409F082C0809152018B7F809306
:10548000520181FD11C080917A0490917B04A701A3
:10549000481B590B81E02091500130915101421776
:1054A000530718F480E001C081E08170D82E80910C
:1054B0005201D0FA81F980935201FE01FF2784E066
:1054C000F695E7958A95E1F79E012F703327EE0F49
:1054D000FF1FEA5CFB4F81E090E002C0880F991F3C
:1054E0002A95E2F7DD2029F020813181822B932B50
:1054F00006C08095909520813181822393239183EA
:1055000080838091350481FF08C0809152018061C1
:105510008093520182E00E94A7188091350485FF94
:1055200008C08091520180628093520180E20E9403
:10553000A718A8016D2DCE010E94032ACC2031F0BE
:105540008091710485FF02C086FF36C0809174048B
:10555000909175040E94182A80917C0490917D049A
:105560009C013056211540E2340720F0305E2115B1
:10557000304108F499270E94C53218C0950133279D
:10558000C5019056811540E2940720F0905E811588
:10559000904110F4C90101C0C5010E94C53280913B
:1055A0007C0490917D04A816B90611F40E94E429A8
:1055B000F0927B04E0927A04CDB7DEB7EAE00C9477
:1055C000DA35FC01680F791F8FEF91E3E617F707D3
:1055D00071F02191822728E030E087FF03C0880F17
:1055E000892701C0880F21503109B9F7EFCF0895FD
:1055F0000F931F93CF93DF9306E514E0CFE0D3E042
:10560000CE010E940636F80181938F012196C333A3
:10561000F3E0DF07A9F7C0E0D0E0FE01EA52FA4F5D
:1056200085919491009711F0FC0109952C96CC3F3F
:10563000D10599F7DF91CF911F910F910895E6E57C
:10564000F4E0128E138E8FEA90E09183808325E040
:10565000248F88E893E1938382838AE090E09583A6
:10566000848344E150E05783468348E050E051870B
:105670004087938782876EE170E07587648797879C
:10568000868780E590E0918B808B538B428B48E23C
:1056900050E0558B448B42E350E0578B468B48ECEF
:1056A00050E0518F408F158E178E168E91A380A3D8
:1056B00022A30E94D6280E94671D109234041092E3
:1056C0003304E4E3F4E080818460808380913304D8
:1056D000909134040E9408180E94F82A0895CF93EC
:1056E000DF93C7E9D3E060E0CE010E941436219633
:1056F000C11584E0D807B9F7DF91CF9108952091C3
:10570000310430913204232B11F5703F39F4603F9E
:10571000F1F480912F049091300408958330B8F40F
:105720007C3038F46A3058F4462F672F0E949E234D
:1057300008957D3F21F4623050F441E005C07C3F84
:1057400031F4623020F440E00E943E23089580E06E
:1057500090E00895A4E1B0E0E0EBFBE20C94B835F2
:10576000609046017090470181E090E0909347017E
:105770008093460194EEA92E92E0B92EC12CD12C33
:10578000512C412CE12CF12C00E010E046018E0C54
:105790009F1CF801EE0FFF1FE80DF91DE450FD4FAF
:1057A00025913491402F642D852D0E9477230F5F22
:1057B0001F4F0A30110569F784E1E80EF11C43948C
:1057C000ECE04E12E1CF750110E0F7012591349124
:1057D00041E0612F852D0E940C23F701329625911F
:1057E000349140E0612F852D0E940C23F4E0EF0EF0
:1057F000F11C1F5F123049F788E0A80EB11C5394CA
:10580000E0EFCE0ED11CF3E05F12BBCF0E941F2B46
:105810001A8219821C821B821E821D8218861F8298
:1058200088EC90E09A8789874AE050E063E373E070
:10583000CE0101960E9438364AE050E06DE373E0F5
:10584000CE0101960E9438367E018BE0E80EF11CF5
:105850008AE0F70111928A95E9F707E413E04AE03C
:1058600050E0B801C7010E943836065F1F4F073964
:10587000F3E01F07A1F7709247016092460164961A
:10588000E0E10C94D435823080F49B01982F8AE0BB
:10589000989FB00111246D5C7C4F4AE050E0C90133
:1058A0000E94F63580E090E008958FEF9FEF089515
:1058B00080919704982F9670963011F4886001C0FB
:1058C000877F0E94951A0895A0E0B0E0EAE6FCE226
:1058D0000C94BE35EC018AE0A82E2881222309F41D
:1058E0009AC0213009F041C08981813039F48E019C
:1058F0000E5F1F4F8A810E94081E08C0823041F44B
:105900008E010E5F1F4F8A810E945C33E80181C0C7
:10591000833039F48E010E5F1F4F8A810E94F93265
:10592000F5CF843011F0219674C02A81229680E050
:1059300090E030E0205331092A30310558F4A89E18
:10594000A001A99E500D1124C901840F951F219615
:105950002881EFCF009709F45CC0EFE9FFE03197B1
:10596000F1F700C000000197F5CFE22FF0E0EE560E
:10597000F74FB490822F86958695869590E0FC012E
:10598000EE57F74FE4902770F12C022E02C0F594E9
:10599000E7940A94E2F7F1E0EF22FF24FC01EE58CD
:1059A000F74FC490D12C022E02C0D594C7940A940C
:1059B000E2F731E0C322DD24FC01EE59F74F0491F8
:1059C00010E002C0159507952A95E2F7017011279E
:1059D000E114F10419F081EE0E945C33C114D1048A
:1059E00019F086EE0E945C338B2D0E94081EC114B4
:1059F000D10419F086EE0E94F932E114F10419F095
:105A000081EE0E94F9320115110519F08CE20E9415
:105A1000081E219662CFCDB7DEB7EAE00C94DA35E6
:105A2000EF92FF920F931F93CF93DF937C018B0133
:105A30000E94111F811119C0E70101151105A1F084
:105A40008091E80085FD0AC08091E8008E77809300
:105A5000E8000E94111F882381F307C08991809379
:105A6000F10001501109E9CF80E0CDB7DEB7E6E0E3
:105A70000C94DE35AAE2B0E0E0E4FDE20C94C5351A
:105A8000EFE8F4E087E994E02091F10021938E178C
:105A90009F07D1F780919004833009F463C030F4FC
:105AA000813071F0823009F49DC0B4C08A3009F4AD
:105AB00089C08B3009F46EC0893009F0ABC020C0BA
:105AC00080918F04813A09F0A5C08091E800877F1A
:105AD0008093E8008091930490919404892B21F4A1
